:100000001CC067C152C165C164C163C162C161C125
:1000100060C15FC15EC15DC15CC15BC15AC159C1F4
:1000200058C149C175C055C154C153C152C151C114
:1000300050C14FC13F003F02800011241FBECFEFCF
:10004000CDBFDFE3DEBFE4E3F0E040E017C0B591F1
:10005000A59135912591059107FD0CC0959185914C
:10006000EF01F92FE82F05900D92A217B307D9F7EA
:10007000FE0104C01D92A217B307E1F7E933F407AC
:0A00800031F7D2D00BC1F894FFCF86
:10008A00CF93DF938CD0C0E0D4E01882A0E2B4E032
:10009A0080E28C93E0E4F4E010821C8214961C92B5
:1000AA0014971482188A198A1A8A1B8A1C8A1D8A2A
:1000BA001E8A1F8A50961C92509784E051968C9300
:1000CA00519752961C92529753961C925397549654
:1000DA001C92549755961C92559756961C92569771
:1000EA0057961C92108A118A128A138A148A158AC0
:1000FA00168A178AE0E0F2E01082118212821382D5
:06010A00DF91CF91089582
:100110001F920F920FB60F9211242F933F934F937C
:100120005F936F937F938F939F93AF93BF93EF935F
:10013000FF93E091003FF091013F309709F009955E
:1001400082E080930B06FF91EF91BF91AF919F9159
:100150008F917F916F915F914F913F912F910F9070
:080160000FBE0F901F901895CF
:1001680040E068ED88E790E0A8D040E068ED8CE7D3
:1001780090E0A3D040E068ED80E790E09ED041E0B9
:1001880068ED81E690E099D040E068ED80E690E087
:1001980094D040E068ED82E690E08FD080E008954A
:1001A800E0E1F4E0808188608193E83184E0F80739
:1001B800C9F7E0E3F4E0808188608193E83384E064
:1001C800F807C9F7E0E5F4E0808188608193E835B5
:0801D80084E0F807C9F708955F
:1001E000E0E0F6E0168A118280E1828313821482B5
:1001F000148611861286168281E08583148A158AF8
:0A020000128A138A808380E00895BB
:10020A00E0E0F6E0868381E080875AD08823E9F32C
:0E021A00E0E0F6E08089918921E023870895D5
:10022800CF93DF9300D0CDB7DEB71ED080E28093A6
:0C02380026048AE0E6DF89839A83FBCF6E
:1002440040E068ED80E191E03AD0E0E1F1E0128233
:06025400138280E0089512
:10025A0040E068ED80E890E02FD0E0E8F0E0118619
:06026A00108680E00895FB
:100270000CDFF3DF0CD004D077DFB2DFE3DF0895CB
:0E02800040E068ED80E590E01CD080E008953D
:0E028E0040E068ED80E091E015D080E008953A
:0E029C00EC011BD019D0CE0119D0CE0118D024
:0C02AA008F9381E080938A008F9118955B
:0C02B6008F9381E080930B068F911895C8
:0802C200FC0164BF40830895B4
:0802CA0080910B06817008957C
:0202D20096CEC6
:0202D40008958B
:0202D600089589
:0202D800089587
:0202DA00D5DE6F
:02000004008278
:090000000000020000C40700002A
:00000001FF
